:02000000002DD1
:1000060083120313FB01FA01F9018030F800F10CA9
:10001600F00C031C17287408F90775080318750FE8
:10002600FA070318FB0A0310F01F1F287408FA07C3
:1000360075080318750FFB07FB0CFA0CF90CF80C86
:10004600031C0A287B08F3007A08F2007908F100FD
:060056007808F00008002C
:0A005C00831203132108F0000800CE
:0E0066008312031324088A0023088200080076
:10007400831603139818402800003A28831229088D
:0400840099000800D7
:0A008800831203132008F0000800A3
:10009200831603131208013EF000F1010318F10A5E
:1000A20083122908F400F50103200630F2007008DB
:1000B200F4007108F500720803196428F50CF40CB9
:1000C200F513FF3E5D280430F1007408F00071085A
:1000D20003196F28F00D7010FF3E6928303070054B
:1000E200F3007408F0007508F100F10CF00CF11344
:1000F200F10CF00CF11370089B000F309D05730892
:040102009D04080050
:10010600831603131208013EF000F1010318F10AE9
:1001160083122908F400F50103200630F200700866
:10012600F4007108F500720803199E28F50CF40C0A
:10013600F513FF3E97280430F1007408F0007108AB
:100146000319A928F00D7010FF3EA3283030700562
:10015600F3007408F0007508F100F10CF00CF113CF
:10016600F10CF00CF113700895000F309705730829
:0401760097040800E2
:0A017A00831203132208F0000800AE
:1001840083160313981690308312980083168717EA
:10019400071383128C1ED1281A08F000CB280800FC
:0C01A40083120313950117129712080034
:0C01B000831203139B011D129D12080016
:1001BC004E298312031306108610061EEB28861A8E
:1001CC00EB280130A2000614FB28061AF328861E21
:1001DC00F3280230A2008614FB28061EFB28861E7C
:1001EC00FB280330A200061486146129061A042980
:1001FC00861A0429A201861006101529061A0D2943
:10020C00861E0D290230A200861406101529061E22
:10021C001529861E15290330A2008614061461299F
:10022C00061A1E29861A1E29A201861006102F29CD
:10023C00061E2729861A27290130A20086100614CB
:10024C002F29061E2F29861E2F290330A200861463
:10025C0006146129061E3929861A39290130A20093
:10026C00861006144929061A4229861E4229023094
:10027C00A200861406104929061A4929861A49290A
:10028C00A201861006106129A201861006106129B0
:10029C00831203132208003A0319DF282208013ABB
:1002AC000319FC282208023A031916292208033ADA
:0802BC00031930294A2908004A
:0202C400080030
:1002C600831603130711831212150C3097040800C6
:1002D600831603138710831212150C309D04080031
:1002E60033208A110A128000840AA30A0319A40A79
:0802F600F003031D7329080049
:1002FE00023083120313FB004530FC00A930FD00D1
:10030E00FD0B8729FC0B8729FB0B872900000000BA
:10031E006530A9003A200230FB004530FC00A930C0
:10032E00FD00FD0B9829FC0B9829FB0B982900006A
:10033E0000000130A9003A200230FB004530FC00DD
:10034E00A930FD00FD0BA929FC0BA929FB0BA9293E
:10035E0000000000BD207008A9003A200230FB000A
:10036E004530FC00A930FD00FD0BBB29FC0BBB2961
:10037E00FB0BBB29000000006530A9003A200230BB
:10038E00FB004530FC00A930FD00FD0BCC29FC0B19
:10039E00CC29FB0BCC29000000000230A9003A202A
:1003AE000230FB004530FC00A930FD00FD0BDD29BD
:1003BE00FC0BDD29FB0BDD29000000002E20700850
:1003CE00A9003A200230FB004530FC00A930FD00A8
:1003DE00FD0BEF29FC0BEF29FB0BEF2900000000B2
:1003EE006530A9003A200230FB004530FC00A930F0
:1003FE00FD00FD0B002AFC0B002AFB0B002A00005F
:10040E0000000330A9003A200230FB004530FC000A
:10041E00A930FD00FD0B112AFC0B112AFB0B112A32
:0E042E000000000044207008A9003A200800D9
:10043C00A42B013083120313A100D32B0230A10093
:10044C00BD207008033A031D2E2A0430A1005D2A3A
:10045C00BD207008013A0319482ABD207008003AE3
:10046C000319482A44207008023A0319482A4420E8
:10047C007008043A0319482A44207008053A0319F5
:10048C00482A4B2A0230A1005D2ABD207008023A8E
:10049C0003195B2A44207008013A03195B2A442093
:1004AC007008033A03195B2A5D2A0330A100D32B91
:1004BC0006158611CC30A9008320CC30A900492028
:1004CC00BD207008023A031D6E2A0330A100882A51
:1004DC00BD207008033A031D762A0430A100882A37
:1004EC0044207008033A0319862A44207008053A00
:1004FC000319862A44207008013A0319862A882A8F
:10050C000830A100D32B06118615CC30A90083200E
:10051C00CC30A9004920BD207008013A031D992A4E
:10052C000230A100B32ABD207008033A031DA12A92
:10053C000430A100B32A44207008043A0319B12AEC
:10054C0044207008053A0319B12A44207008023A75
:10055C000319B12AB32A0730A100D32B0530A1000F
:10056C00D32BA9018320A90149200D30FB00AF300A
:10057C00FC00B630FD00FD0BC12AFC0BC12AFB0BA5
:10058C00C12A00000630A100D32B06158615FF30BA
:10059C00A9008320FF30A9004920BD207008033A30
:1005AC00031DE02A44207008003A031DE02A06309F
:1005BC00A100402BBD207008033A031D022B4420E0
:1005CC007008053A0319FF2A44207008013A0319F0
:1005DC00FF2A44207008023A0319FF2A44207008AD
:1005EC00033A0319FF2A44207008043A0319FF2A1E
:1005FC00022B0A30A100402BBD207008003A031DCD
:10060C000F2B44207008003A031D0F2B0130A10062
:10061C00402BBD207008013A031D172B0230A1009E
:10062C00402BBD207008023A031D1F2B0330A10084
:10063C00402BBD207008003A031D402B442070084D
:10064C00053A03193E2B44207008013A03193E2B3E
:10065C0044207008023A03193E2B44207008033AD8
:10066C0003193E2B44207008043A03193E2B402BEF
:10067C000A30A100D32B06158611CC30A90083209B
:10068C00CC30A90049201A30FB005E30FC006E30E3
:10069C00FD00FD0B4F2BFC0B4F2BFB0B4F2B0000CE
:1006AC000930A100D32B06118615CC30A90083206C
:1006BC00CC30A90049201A30FB005E30FC006E30B3
:1006CC00FD00FD0B672BFC0B672BFB0B672B000056
:1006DC000930A100D32B06158615CC30A900832038
:1006EC00CC30A90049203330FB00BB30FC00DF309C
:1006FC00FD00FD0B7F2BFC0B7F2BFB0B7F2B0000DE
:10070C0000000130A100D32B06118611CC30A900BA
:10071C008320CC30A90049203330FB00BB30FC00D7
:10072C00DF30FD00FD0B982BFC0B982BFB0B982B53
:10073C00000000000130A100D32BD32B8312031334
:10074C002108003A03191F2A2108013A0319242A07
:10075C002108023A03195E2A2108033A0319892A4F
:10076C002108043A0319B42A2108053A0319B72AB7
:10077C002108063A0319CB2A2108073A0319412B01
:10078C002108083A0319592B2108093A0319712B2E
:0C079C0021080A3A03198A2BA32B08003D
:1007A800E12C83120313881AE02B081FE02B881F03
:1007B800E02B0130A000032C881EE92B081FE92B31
:1007C800881BE92B0230A000032C881AF22B081B87
:1007D800F22B881FF22B0330A000032C881EFB2B62
:1007E800081BFB2B881BFB2B0430A000032C881A4A
:1007F800032C081B032C881B032C0530A000FC2CA1
:10080800881E0C2C081F0C2C881F0C2CA0012F2CC8
:10081800881E152C081F152C881B152C0230A000CB
:100828002F2C881A1E2C081B1E2C881F1E2C0330E8
:10083800A0002F2C881E272C081B272C881B272C50
:100848000430A0002F2C881A2F2C081B2F2C881B53
:100858002F2C0530A000FC2C881E382C081F382CA3
:10086800881F382CA0015B2C881A412C081F412CAA
:10087800881F412C0130A0005B2C881A4A2C081BC9
:100888004A2C881F4A2C0330A0005B2C881E532C4E
:10089800081B532C881B532C0430A0005B2C881A8F
:1008A8005B2C081B5B2C881B5B2C0530A000FC2CE8
:1008B800881E642C081F642C881F642CA001872CB8
:1008C800881A6D2C081F6D2C881F6D2C0130A00014
:1008D800872C881E762C081F762C881B762C0230D5
:1008E800A000872C881E7F2C081B7F2C881B7F2C40
:1008F8000430A000872C881A872C081B872C881B9B
:10090800872C0530A000FC2C881E902C081F902CEA
:10091800881F902CA001B32C881A992C081F992C99
:10092800881F992C0130A000B32C881EA22C081F08
:10093800A22C881BA22C0230A000B32C881AAB2C46
:10094800081BAB2C881FAB2C0330A000B32C881AD3
:10095800B32C081BB32C881BB32C0530A000FC2C2F
:10096800881EBC2C081FBC2C881FBC2CA001DF2CA7
:10097800881AC52C081FC52C881FC52C0130A0005B
:10098800DF2C881ECE2C081FCE2C881BCE2C0230C4
:10099800A000DF2C881AD72C081BD72C881FD72C2F
:1009A8000330A000DF2C881EDF2C081BDF2C881BDF
:1009B800DF2C0430A000FC2CFC2C8312031320082D
:1009C800003A0319D52B2008013A0319042C2008F2
:1009D800023A0319302C2008033A03195C2C20082A
:1009E800043A0319882C2008053A0319B42CE02C82
:0209F8000800F5
:0209FA000800F3
:0209FC000800F1
:0209FE000800EF
:100A00003C25F030831603138600831212149210D3
:100A1000F93083169200D22012149210F930831606
:100A20009200D8208601FD24FF24FE246221632148
:100A30006B218130831699001815C2209817033056
:100A4000FB008A30FC005530FD00FD0B252DFC0B12
:100A5000252DFB0B252D00000000DE20D4231E22B7
:060A60007F212D2D322D37
:100A780020308400033083120313F0003830A300C1
:080A88000530A40073210800F1
:020A7000003450
:020A720000344E
:020A740000344C
:02400E004A2F37
:00000001FF
