:02000000352B9E
:1000060083120313FB01FA01F9018030F800F10CA9
:10001600F00C031C17287408F90775080318750FE8
:10002600FA070318FB0A0310F01F1F287408FA07C3
:1000360075080318750FFB07FB0CFA0CF90CF80C86
:10004600031C0A287B08F3007A08F2007908F100FD
:060056007808F00008002C
:0A005C00831203132108F0000800CE
:0E0066008312031324088A0023088200080076
:10007400831603139818402800003A28831229088D
:0400840099000800D7
:10008800831603131208013EF000F1010318F10A68
:1000980083122908F400F50103200630F2007008E5
:1000A800F4007108F500720803195F28F50CF40CC8
:1000B800F513FF3E58280430F1007408F000710869
:1000C80003196A28F00D7010FF3E6428303070055F
:1000D800F3007408F0007508F100F10CF00CF1134E
:1000E800F10CF00CF11370089B000F309D0573089C
:0400F8009D0408005B
:0A00FC00831203132208F00008002D
:0A010600831203132008F000080024
:10011000831603131208013EF000F1010318F10ADF
:1001200083122908F400F50103200630F20070085C
:10013000F4007108F50072080319A328F50CF40CFB
:10014000F513FF3E9C280430F1007408F00071089C
:100150000319AE28F00D7010FF3EA828303070054E
:10016000F3007408F0007508F100F10CF00CF113C5
:10017000F10CF00CF113700895000F30970573081F
:0401800097040800D8
:100184002B298312031306108610061ECF28861A05
:10019400CF280130A2000614D628061AD628861EB7
:1001A400D6280230A20086143E29061ADF28861AB1
:1001B400DF28A20186100610F028061AE828861EF9
:1001C400E8280230A20086140610F028061EF02843
:1001D400861EF0280330A200861406143E29061A4F
:1001E400F928861AF928A201861006100A29061E83
:1001F4000229861A02290130A200861006140A294F
:10020400061E0A29861E0A290330A2008614061433
:100214003E29061E1429861A14290130A2008610CC
:1002240006142629061A1D29861E1D290230A2003D
:10023400861406102629061A2629861A2629A201BA
:1002440086100610861406143E29A2018610061094
:100254003E29831203132208003A0319C3282208F3
:10026400013A0319D7282208023A0319F12822086F
:0A027400033A03190B29272908009B
:10027E0083160313981690308312980083168717EF
:10028E00071383128C1E4E291A08F0004829080005
:0C029E00831203139B011D129D12080027
:1002AA00831603130711831212150C3097040800E2
:0202BA0008003A
:1002BC00831603138710831212150C309D0408004B
:0C02CC008312031395011712971208000B
:1002D80033208A110A128000840AA30A0319A40A87
:0802E800F003031D6C2908005E
:1002F000023083120313FB004530FC00A930FD00DF
:10030000FD0B8029FC0B8029FB0B802900000000DD
:100310006530A9003A200230FB004530FC00A930CE
:10032000FD00FD0B9129FC0B9129FB0B912900008D
:1003300000000130A9003A200230FB004530FC00EB
:10034000A930FD00FD0BA229FC0BA229FB0BA22961
:10035000000000007E207008A9003A200230FB0057
:100360004530FC00A930FD00FD0BB429FC0BB4297D
:10037000FB0BB429000000006530A9003A200230D0
:10038000FB004530FC00A930FD00FD0BC529FC0B2E
:10039000C529FB0BC529000000000230A9003A2046
:1003A0000230FB004530FC00A930FD00FD0BD629D2
:1003B000FC0BD629FB0BD629000000002E2070086C
:0603C000A9003A2008002C
:1003C6000A2B013083120313A100312B061186116B
:1003D600A9018820A90144207E207008013A031D46
:1003E600F7290230A100062A7E207008023A031D72
:1003F600FF290330A100062A7E207008033A031D58
:10040600062A0430A100312B06118615CC30A9002E
:100416008820CC30A90044207E207008003A031DB5
:10042600172A0130A100482A7E207008023A0319D3
:10043600222A83207008013A0319222A252A03302A
:10044600A100482A7E207008033A031D2D2A043095
:10045600A100482A83207008033A0319382A83200A
:100466007008053A0319382A3B2A0730A100482AA2
:1004760083207008043A0319462A83207008053A37
:100486000319462A482A0830A100312B0615861181
:10049600CC30A9008820CC30A90044207E207008EA
:1004A600003A031D592A0130A1008A2A7E207008CD
:1004B600013A0319642A83207008023A0319642A50
:1004C600672A0230A1008A2A7E207008033A031D9B
:1004D6006F2A0430A1008A2A83207008033A031980
:1004E6007A2A83207008053A03197A2A7D2A07306A
:1004F600A1008A2A83207008043A0319882A8320D7
:100506007008053A0319882A8A2A0830A100312B77
:1005160006158611FF30A9008820FF30A900442067
:100526007E207008013A031D9B2A0230A100AA2AE8
:100536007E207008023A031DA32A0330A100AA2ACE
:100546007E207008033A031DAA2A0430A100312B2D
:1005560006118615FF30A9008820FF30A900442027
:100566007E207008013A031DBB2A0230A100CA2A68
:100576007E207008023A031DC32A0330A100CA2A4E
:100586007E207008033A031DCA2A0430A100312BCD
:1005960006118611CC30A9008820CC30A900442051
:1005A6000530A100312B061186111A30FB005E3092
:1005B600FC006E30FD00FD0BDE2AFC0BDE2AFB0B79
:1005C600DE2A0000A9018820A90144202730FB006B
:1005D6000D30FC002630FD00FD0BEF2AFC0BEF2A48
:1005E600FB0BEF2A00000630A100312B06158615FD
:1005F600FF30A9008820FF30A90044207E20700823
:10060600003A031D082B0130A100312B312B831238
:1006160003132108003A0319E4292108013A0319B2
:10062600E9292108023A0319072A2108033A03197E
:10063600492A2108073A03198B2A2108083A03197F
:10064600AB2A2108043A0319CB2A2108053A0319D3
:0E065600D62A2108063A0319F92A092B0800B2
:0206640008008C
:0206660008008A
:02066800080088
:10066A007023F0308316031386008312121492103B
:10067A00F93083169200662112149210F93083160B
:10068A0092004F2186013223342333235D215521E1
:10069A005E2181308316990018153F21981703307F
:1006AA00FB008A30FC005530FD00FD0B5A2BFC0B79
:1006BA005A2BFB0B5A2B00000000C220E3217821A1
:0406CA00622B662B0E
:1006E00020308400033083120313F0006C30A30029
:0806F0000330A4006C21080096
:0206D8000034EC
:0206DA000034EA
:0206DC000034E8
:02400E004A2F37
:00000001FF
