:02000000D42CFE
:1000060083120313FB01FA01F9018030F800F10CA9
:10001600F00C031C17287408F90775080318750FE8
:10002600FA070318FB0A0310F01F1F287408FA07C3
:1000360075080318750FFB07FB0CFA0CF90CF80C86
:10004600031C0A287B08F3007A08F2007908F100FD
:060056007808F00008002C
:0A005C00831203132108F0000800CE
:0E0066008312031324088A0023088200080076
:10007400831603139818402800003A28831229088D
:0400840099000800D7
:10008800831603131208013EF000F1010318F10A68
:1000980083122908F400F50103200630F2007008E5
:1000A800F4007108F500720803195F28F50CF40CC8
:1000B800F513FF3E58280430F1007408F000710869
:1000C80003196A28F00D7010FF3E6428303070055F
:1000D800F3007408F0007508F100F10CF00CF1134E
:1000E800F10CF00CF11370089B000F309D0573089C
:0400F8009D0408005B
:0A00FC00831203132208F00008002D
:0A010600831203132008F000080024
:10011000831603131208013EF000F1010318F10ADF
:1001200083122908F400F50103200630F20070085C
:10013000F4007108F50072080319A328F50CF40CFB
:10014000F513FF3E9C280430F1007408F00071089C
:100150000319AE28F00D7010FF3EA828303070054E
:10016000F3007408F0007508F100F10CF00CF113C5
:10017000F10CF00CF113700895000F30970573081F
:0401800097040800D8
:1001840083160313981690308312980083168717EA
:10019400071383128C1ED1281A08F000CB280800FC
:0C01A40083120313950117129712080034
:0C01B000831203139B011D129D12080016
:1001BC0045298312031306108610061EEB28861A97
:1001CC00EB280130A2000614F228061AF228861E2B
:1001DC00F2280230A20086145829061AFB28861A27
:1001EC00FB28A201861006100C29061A0429861E6B
:1001FC0004290230A200861406100C29061E0C29B4
:10020C00861E0C290330A200861406145829061ADF
:10021C001529861A1529A201861006102629061EF4
:10022C001E29861A1E290130A200861006142629C2
:10023C00061E2629861E26290330A20086140614C3
:10024C005829061E3029861A30290130A200861042
:10025C0006144029061A3929861E39290230A200B3
:10026C00861406104029061A4029861A4029A20134
:10027C00861006105829A2018610061058298312E0
:10028C0003132208003A0319DF282208013A031944
:10029C00F3282208023A03190D292208033A0319FC
:0602AC002729412908008A
:0202B200080042
:1002B400831603130711831212150C3097040800D8
:1002C400831603138710831212150C309D04080043
:1002D40033208A110A128000840AA30A0319A40A8B
:0802E400F003031D6A29080064
:1002EC00023083120313FB004530FC00A930FD00E3
:1002FC00FD0B7E29FC0B7E29FB0B7E2900000000E8
:10030C006530A9003A200230FB004530FC00A930D2
:10031C00FD00FD0B8F29FC0B8F29FB0B8F29000097
:10032C0000000130A9003A200230FB004530FC00EF
:10033C00A930FD00FD0BA029FC0BA029FB0BA0296B
:10034C00000000007E207008A9003A200230FB005B
:10035C004530FC00A930FD00FD0BB229FC0BB22985
:10036C00FB0BB229000000006530A9003A200230D6
:10037C00FB004530FC00A930FD00FD0BC329FC0B34
:10038C00C329FB0BC329000000000230A9003A204E
:10039C000230FB004530FC00A930FD00FD0BD429D8
:1003AC00FC0BD429FB0BD429000000002E20700874
:1003BC00A9003A200230FB004530FC00A930FD00BA
:1003CC00FD0BE629FC0BE629FB0BE62900000000DF
:1003DC006530A9003A200230FB004530FC00A93002
:1003EC00FD00FD0BF729FC0BF729FB0BF72900008F
:1003FC0000000330A9003A200230FB004530FC001D
:10040C00A930FD00FD0B082AFC0B082AFB0B082A5F
:10041C000000000083207008A9003A200230FB0085
:10042C004530FC00A930FD00FD0B1A2AFC0B1A2AE2
:10043C00FB0B1A2A000000006530A9003A2002309C
:10044C00FB004530FC00A930FD00FD0B2B2AFC0BFA
:10045C002B2AFB0B2B2A000000000930A9003A20A4
:10046C000230FB004530FC00A930FD00FD0B3C2A9E
:10047C00FC0B3C2AFB0B3C2A00000000A9013A2093
:10048C000230FB004530FC00A930FD00FD0B4C2A6E
:10049C00FC0B4C2AFB0B4C2A000000000330A9007B
:0404AC003A200800EA
:1004B0007F2B013083120313A100A62B0611861196
:1004C000A9018820A90144207E207008013A031D5B
:1004D0006C2A0230A1007B2A7E207008023A031D9C
:1004E000742A0330A1007B2A7E207008033A031D82
:1004F0007B2A0430A100A62B06118615CC30A9005A
:100500008820CC30A90044207E207008003A031DCA
:100510008C2A0130A100BD2A7E207008023A0319FE
:10052000972A83207008013A0319972A9A2A0330E0
:10053000A100BD2A7E207008033A031DA22A0430C0
:10054000A100BD2A83207008033A0319AD2A832035
:100550007008053A0319AD2AB02A0730A100BD2A58
:1005600083207008043A0319BB2A83207008053AD7
:100570000319BB2ABD2A0830A100A62B0615861137
:10058000CC30A9008820CC30A90044207E207008FF
:10059000003A031DCE2A0130A100FF2A7E207008F8
:1005A000013A0319D92A83207008023A0319D92A7B
:1005B000DC2A0230A100FF2A7E207008033A031DC6
:1005C000E42A0430A100FF2A83207008033A0319AB
:1005D000EF2A83207008053A0319EF2AF22A073020
:1005E000A100FF2A83207008043A0319FD2A832002
:1005F0007008053A0319FD2AFF2A0830A100A62B2E
:1006000006158611FF30A9008820FF30A90044207C
:100610007E207008013A031D102B0230A1001F2B11
:100620007E207008023A031D182B0330A1001F2BF7
:100630007E207008033A031D1F2B0430A100A62B57
:1006400006118615FF30A9008820FF30A90044203C
:100650007E207008013A031D302B0230A1003F2B91
:100660007E207008023A031D382B0330A1003F2B77
:100670007E207008033A031D3F2B0430A100A62BF7
:1006800006118611CC30A9008820CC30A900442066
:100690000530A100A62B061186111A30FB005E3032
:1006A000FC006E30FD00FD0B532BFC0B532BFB0BA2
:1006B000532B0000A9018820A90144202730FB000A
:1006C0000D30FC002630FD00FD0B642BFC0B642B71
:1006D000FB0B642B00000630A100A62B0615861527
:1006E000FF30A9008820FF30A90044207E20700838
:1006F000003A031D7D2B0130A100A62BA62B8312EF
:1007000003132108003A0319592A2108013A031951
:100710005E2A2108023A03197C2A2108033A0319A8
:10072000BE2A2108073A0319002B2108083A0319A9
:10073000202B2108043A0319402B2108053A0319FC
:0E0740004B2B2108063A03196E2B7E2B080066
:10074E00B52C83120313881AB32B081FB32B881FE3
:10075E00B32B0130A000D62B881EBC2B081FBC2B40
:10076E00881BBC2B0230A000D62B881AC52B081B69
:10077E00C52B881FC52B0330A000D62B881ECE2B71
:10078E00081BCE2B881BCE2B0430A000D62B881A2C
:10079E00D62B081BD62B881BD62B0530A000D02CB1
:1007AE00881EDF2B081FDF2B881FDF2BA001022CDA
:1007BE00881EE82B081FE82B881BE82B0230A000B0
:1007CE00022C881AF12B081BF12B881FF12B0330FA
:1007DE00A000022C881EFA2B081BFA2B881BFA2B62
:1007EE000430A000022C881A022C081B022C881B35
:1007FE00022C0530A000D02C881E0B2C081F0B2CB1
:10080E00881F0B2CA0012E2C881A142C081F142CB8
:10081E00881F142C0130A0002E2C881A1D2C081BAA
:10082E001D2C881F1D2C0330A0002E2C881E262C5C
:10083E00081B262C881B262C0430A0002E2C881A70
:10084E002E2C081B2E2C881B2E2C0530A000D02CF5
:10085E00881E372C081F372C881F372CA0015A2CC6
:10086E00881A402C081F402C881F402C0130A000F5
:10087E005A2C881E492C081F492C881B492C0230E3
:10088E00A0005A2C881E522C081B522C881B522C4E
:10089E000430A0005A2C881A5A2C081B5A2C881B7C
:1008AE005A2C0530A000D02C881E632C081F632CF8
:1008BE00881F632CA001862C881A6C2C081F6C2CA8
:1008CE00881F6C2C0130A000862C881E752C081FEA
:1008DE00752C881B752C0230A000862C881A7E2C55
:1008EE00081B7E2C881F7E2C0330A000862C881AB5
:1008FE00862C081B862C881B862C0530A000D02C3D
:10090E00881E8F2C081F8F2C881F8F2CA001B22CB5
:10091E00881A982C081F982C881F982C0130A0003C
:10092E00B22C881EA12C081FA12C881BA12C0230D2
:10093E00A000B22C881AAA2C081BAA2C881FAA2C3D
:10094E000330A000B22C881EB22C081BB22C881BC0
:10095E00B22C0430A000D02CA001D02C8312031393
:10096E002008003A0319A82B2008013A0319D72BA7
:10097E002008023A0319032C2008033A03192F2CDE
:10098E002008043A03195B2C2008053A0319872C1A
:04099E00B32C08006E
:0209A20008004B
:0209A400080049
:0209A600080047
:1009A8001025F03083160313860083121214921058
:1009B800F93083169200D22012149210F93083165F
:1009C8009200D8208601D124D324D22459215A2137
:1009D80062218130831699001815C22098170330B8
:1009E800FB008A30FC005530FD00FD0BF92CFC0B98
:1009F800F92CFB0BF92C00000000DE20A72358225D
:060A08007621012D062DF0
:100A200020308400033083120313F0000C30A30045
:080A30000530A4006A21080052
:020A18000034A8
:020A1A000034A6
:020A1C000034A4
:02400E004A2F37
:00000001FF
