:020000000D2AC7
:1000060083120313FB01FA01F9018030F800F10CA9
:10001600F00C031C17287408F90775080318750FE8
:10002600FA070318FB0A0310F01F1F287408FA07C3
:1000360075080318750FFB07FB0CFA0CF90CF80C86
:10004600031C0A287B08F3007A08F2007908F100FD
:060056007808F00008002C
:0A005C00831203132108F0000800CE
:0E0066008312031323088A0022088200080078
:0A007400831203132008F0000800B7
:10007E00831603139818452800003F28831228087A
:04008E0099000800CD
:10009200831603131208013EF000F1010318F10A5E
:1000A20083122808F400F50103200630F2007008DC
:1000B200F4007108F500720803196428F50CF40CB9
:1000C200F513FF3E5D280430F1007408F00071085A
:1000D20003196F28F00D7010FF3E6928303070054B
:1000E200F3007408F0007508F100F10CF00CF11344
:1000F200F10CF00CF11370089B000F309D05730892
:040102009D04080050
:10010600831603131208013EF000F1010318F10AE9
:1001160083122808F400F50103200630F200700867
:10012600F4007108F500720803199E28F50CF40C0A
:10013600F513FF3E97280430F1007408F0007108AB
:100146000319A928F00D7010FF3EA3283030700562
:10015600F3007408F0007508F100F10CF00CF113CF
:10016600F10CF00CF113700895000F309705730829
:0401760097040800E2
:10017A0083160313981690308312980083168717F4
:10018A00071383128C1ECC281A08F000C628080010
:10019A00831603130711831212150C3097040800F3
:0C01AA008312031395011712971208002E
:1001B600831603138710831212150C309D04080052
:0201C60008002F
:1001C8004B298312031306108610061EF128861A7F
:1001D800F1280130A0000614F828061AF828861E0F
:1001E800F8280230A00086145E29061A0129861A0A
:1001F8000129A001861006101229061A0A29861E4E
:100208000A290230A000861406101229061E122997
:10021800861E12290330A000861406145E29061AC9
:100228001B29861A1B29A001861006102C29061ED8
:100238002429861A24290130A000861006142C29A6
:10024800061E2C29861E2C290330A00086140614AD
:100258005E29061E3629861A36290130A000861026
:1002680006144629061A3F29861E3F290230A00097
:10027800861406104629061A4629861A4629A00118
:10028800861406145E29A001861006105E298312C2
:1002980003132008003A0319E5282008013A031936
:1002A800F9282008023A031913292008033A0319E8
:0602B8002D294729080072
:1002BE0033208A110A128000840AA20A0319A30AA3
:0802CE00F003031D5F29080085
:1002D600023083120313FB004530FC00A930FD00F9
:1002E600FD0B7329FC0B7329FB0B7329000000001F
:1002F6006530A8003F200230FB004530FC00A930E5
:10030600FD00FD0B8429FC0B8429FB0B84290000CE
:1003160000000130A8003F200230FB004530FC0001
:10032600A930FD00FD0B9529FC0B9529FB0B9529A2
:10033600000000003A207008A8003F200230FB00B1
:100346004530FC00A930FD00FD0BA729FC0BA729B1
:10035600FB0BA729000000006530A8003F200230F3
:10036600FB004530FC00A930FD00FD0BB829FC0B55
:10037600B829FB0BB829000000000230A8003F2076
:100386000230FB004530FC00A930FD00FD0BC929F9
:10039600FC0BC929FB0BC929000000002E207008A0
:0603A600A8003F20080042
:1003AC008312031306158611CC30A8008320CC30A1
:1003BC00A80049204D30FB001930FC004F30FD00E7
:1003CC00FD0BE629FC0BE629FB0BE62900000000DF
:1003DC0006118615CC30A8008320CC30A80049200B
:1003EC004D30FB001930FC004F30FD00FD0BFC299B
:0E03FC00FC0BFC29FB0BFC2900000000080094
:0C040A00831203139B011D129D120800B9
:020416000800DC
:020418000800DA
:10041A004622F030831603138600831212149210B8
:10042A00F93083169200D52012149210F9308316EF
:10043A009200052286010C220B22E320CD20DB202C
:10044A008130831699001815BD2098170330FB00D8
:10045A008A30FC005530FD00FD0B312AFC0B312A95
:10046A00FB0B312A00000000E420D6216B21392A37
:02047A003D2A19
:10048C0020308400023083120313F0004330A200AA
:08049C000230A3005F210800FB
:02048600003440
:0204880000343E
:02400E004A2F37
:00000001FF
