:02000000A52A2F
:1000060083120313FB01FA01F9018030F800F10CA9
:10001600F00C031C17287408F90775080318750FE8
:10002600FA070318FB0A0310F01F1F287408FA07C3
:1000360075080318750FFB07FB0CFA0CF90CF80C86
:10004600031C0A287B08F3007A08F2007908F100FD
:060056007808F00008002C
:0A005C00831203132108F0000800CE
:0E0066008312031323088A0022088200080078
:10007400831603139818402800003A28831228088E
:0400840099000800D7
:0A008800831203132008F0000800A3
:10009200831603131208013EF000F1010318F10A5E
:1000A20083122808F400F50103200630F2007008DC
:1000B200F4007108F500720803196428F50CF40CB9
:1000C200F513FF3E5D280430F1007408F00071085A
:1000D20003196F28F00D7010FF3E69288312031375
:1000E20030307005F3007408F0007508F100F10C6F
:1000F200F00CF113F10CF00CF11370089B000F30AF
:080102009D0573089D0408002F
:10010A00831603131208013EF000F1010318F10AE5
:10011A0083122808F400F50103200630F200700863
:10012A00F4007108F50072080319A028F50CF40C04
:10013A00F513FF3E99280430F1007408F0007108A5
:10014A000319AB28F00D7010FF3EA5288312031384
:10015A0030307005F3007408F0007508F100F10CF6
:10016A00F00CF113F10CF00CF113700895000F303C
:08017A009705730897040800C3
:1001820083160313981690308312980083168717EC
:10019200071383128C1ED0281A08F000CA28080000
:0201A200080053
:0C01A400831203139B011D129D12080022
:1001B000831603138710831212150C309D04080058
:1001C000831603130711831212150C3097040800CD
:1001D0004F298312031306108610061EF528861A6F
:1001E000F5280130A0000614FC28061AFC28861EFB
:1001F000FC280230A00086146229061A0529861AF6
:100200000529A001861006101629061A0E29861E39
:100210000E290230A000861406101629061E162983
:10022000861E16290330A000861406146229061AB9
:100230001F29861A1F29A001861006103029061EC4
:100240002829861A28290130A00086100614302992
:10025000061E3029861E30290330A000861406149D
:100260006229061E3A29861A3A290130A000861012
:1002700006144A29061A4329861E43290230A00083
:10028000861406104A29061A4A29861A4A29A00104
:10029000861406146229A0018610061062298312B2
:1002A00003132008003A0319E9282008013A03192A
:1002B000FD282008023A031917292008033A0319D8
:0602C00031294B29080062
:1002C60033208A110A128000840AA20A0319A30A9B
:0802D600F003031D6329080079
:1002DE00023083120313FB004530FC00A930FD00F1
:1002EE00FD0B7729FC0B7729FB0B7729000000000B
:1002FE006530A8003A200230FB004530FC00A930E2
:10030E00FD00FD0B8829FC0B8829FB0B88290000BA
:10031E0000000130A8003A200230FB004530FC00FE
:10032E00A930FD00FD0B9929FC0B9929FB0B99298E
:10033E000000000044207008A8003A200230FB00A4
:10034E004530FC00A930FD00FD0BAB29FC0BAB29A1
:10035E00FB0BAB29000000006530A8003A200230EC
:10036E00FB004530FC00A930FD00FD0BBC29FC0B49
:10037E00BC29FB0BBC29000000000230A8003A206B
:10038E000230FB004530FC00A930FD00FD0BCD29ED
:10039E00FC0BCD29FB0BCD29000000002E20700890
:0603AE00A8003A2008003F
:1003B4007D2A013083120313A1009C2A06118611A1
:1003C400A8018520A801492044207008013A031D92
:1003D400EE290230A100FD2944207008023A031DD1
:1003E400F6290330A100FD2944207008033A031DB7
:1003F400FD290430A1009C2A061186113330A8007F
:1004040085203330A800492044207008003A031D99
:100414000E2A0130A1001D2A44207008023A031D4F
:10042400162A0330A1001D2A44207008033A031D34
:100434001D2A0430A1009C2A061586153330A80015
:1004440085203330A800492044207008003A031D59
:100454002E2A0130A1003D2A44207008013A031DD0
:10046400362A0230A1003D2A44207008033A031DB5
:100474003D2A0430A1009C2A061186158030A8006C
:1004840085208030A80049200530A1009C2A06114F
:1004940086151A30FB005E30FC006E30FD00FD0B4B
:1004A400512AFC0B512AFB0B512A0000A80185207C
:1004B400A80149202730FB000D30FC002630FD0048
:1004C400FD0B622AFC0B622AFB0B622A0000063039
:1004D400A1009C2A06158611FF30A8008520FF3054
:1004E400A800492044207008003A031D7B2A0130EB
:1004F400A1009C2A9C2A831203132108003A0319A1
:10050400DB292108013A0319E0292108023A0319D9
:10051400FE292108033A03191E2A2108043A031963
:100524003E2A2108053A0319492A2108063A0319E3
:060534006C2A7C2A08007D
:0C053A008312031395011712971208009A
:020546000800AB
:020548000800A9
:10054A00DE22F030831603138600831212149210EF
:10055A00F930831692009D2212149210F9308316F4
:10056A009200D2208601A422A322D120E020D82002
:10057A008130831699001815C12098170330FB00A3
:10058A008A30FC005530FD00FD0BC92AFC0BC92A34
:10059A00FB0BC92A00000000E820DA216F21D12ACA
:0205AA00D52A50
:1005BC0020308400023083120313F000DB30A200E1
:0805CC000230A30063210800C6
:0205B60000340F
:0205B80000340D
:02400E004A2F37
:00000001FF
