:02000000012DD0
:1000060083120313FB01FA01F9018030F800F10CA9
:10001600F00C031C17287408F90775080318750FE8
:10002600FA070318FB0A0310F01F1F287408FA07C3
:1000360075080318750FFB07FB0CFA0CF90CF80C86
:10004600031C0A287B08F3007A08F2007908F100FD
:060056007808F00008002C
:0A005C00831203132108F0000800CE
:0E0066008312031324088A0023088200080076
:10007400831603139818402800003A28831229088D
:0400840099000800D7
:0A008800831203132008F0000800A3
:10009200831603131208013EF000F1010318F10A5E
:1000A20083122908F400F50103200630F2007008DB
:1000B200F4007108F500720803196428F50CF40CB9
:1000C200F513FF3E5D280430F1007408F00071085A
:1000D20003196F28F00D7010FF3E6928303070054B
:1000E200F3007408F0007508F100F10CF00CF11344
:1000F200F10CF00CF11370089B000F309D05730892
:040102009D04080050
:10010600831603131208013EF000F1010318F10AE9
:1001160083122908F400F50103200630F200700866
:10012600F4007108F500720803199E28F50CF40C0A
:10013600F513FF3E97280430F1007408F0007108AB
:100146000319A928F00D7010FF3EA3283030700562
:10015600F3007408F0007508F100F10CF00CF113CF
:10016600F10CF00CF113700895000F309705730829
:0401760097040800E2
:0A017A00831203132208F0000800AE
:1001840083160313981690308312980083168717EA
:10019400071383128C1ED1281A08F000CB280800FC
:0C01A40083120313950117129712080034
:0C01B000831203139B011D129D12080016
:1001BC004E298312031306108610061EEB28861A8E
:1001CC00EB280130A2000614FB28061AF328861E21
:1001DC00F3280230A2008614FB28061EFB28861E7C
:1001EC00FB280330A200061486146129061A042980
:1001FC00861A0429A201861006101529061A0D2943
:10020C00861E0D290230A200861406101529061E22
:10021C001529861E15290330A2008614061461299F
:10022C00061A1E29861A1E29A201861006102F29CD
:10023C00061E2729861A27290130A20086100614CB
:10024C002F29061E2F29861E2F290330A200861463
:10025C0006146129061E3929861A39290130A20093
:10026C00861006144929061A4229861E4229023094
:10027C00A200861406104929061A4929861A49290A
:10028C00A201861006106129A201861006106129B0
:10029C00831203132208003A0319DF282208013ABB
:1002AC000319FC282208023A031916292208033ADA
:0802BC00031930294A2908004A
:0202C400080030
:1002C600831603130711831212150C3097040800C6
:1002D600831603138710831212150C309D04080031
:1002E60033208A110A128000840AA30A0319A40A79
:0802F600F003031D7329080049
:1002FE00023083120313FB004530FC00A930FD00D1
:10030E00FD0B8729FC0B8729FB0B872900000000BA
:10031E006530A9003A200230FB004530FC00A930C0
:10032E00FD00FD0B9829FC0B9829FB0B982900006A
:10033E0000000130A9003A200230FB004530FC00DD
:10034E00A930FD00FD0BA929FC0BA929FB0BA9293E
:10035E0000000000BD207008A9003A200230FB000A
:10036E004530FC00A930FD00FD0BBB29FC0BBB2961
:10037E00FB0BBB29000000006530A9003A200230BB
:10038E00FB004530FC00A930FD00FD0BCC29FC0B19
:10039E00CC29FB0BCC29000000000230A9003A202A
:1003AE000230FB004530FC00A930FD00FD0BDD29BD
:1003BE00FC0BDD29FB0BDD29000000002E20700850
:1003CE00A9003A200230FB004530FC00A930FD00A8
:1003DE00FD0BEF29FC0BEF29FB0BEF2900000000B2
:1003EE006530A9003A200230FB004530FC00A930F0
:1003FE00FD00FD0B002AFC0B002AFB0B002A00005F
:10040E0000000330A9003A200230FB004530FC000A
:10041E00A930FD00FD0B112AFC0B112AFB0B112A32
:0E042E000000000044207008A9003A200800D9
:10043C00A52B013083120313A100D42BBD2070080F
:10044C00033A031D2C2A0430A1005E2ABD2070083B
:10045C00013A0319462ABD207008003A0319462AAE
:10046C0044207008023A0319462A44207008043AC2
:10047C000319462A44207008053A0319462A492ACA
:10048C000230A1005E2ABD207008023A0319592AD5
:10049C0044207008013A0319592A44207008033A81
:1004AC000319592A5C2A0330A1005E2A0230A100EC
:1004BC00D42B06158611CC30A9008320CC30A90092
:1004CC004920BD207008023A031D6F2A0330A10099
:1004DC00892ABD207008033A031D772A0430A10035
:1004EC00892A44207008033A0319872A442070088B
:1004FC00053A0319872A44207008013A0319872A00
:10050C00892A0830A100D42B06118615CC30A900FD
:10051C008320CC30A9004920BD207008013A031D6E
:10052C009A2A0230A100B42ABD207008033A031D98
:10053C00A22A0430A100B42A44207008043A0319FA
:10054C00B22A44207008053A0319B22A44207008D4
:10055C00023A0319B22AB42A0730A100D42B053071
:10056C00A100D42BA9018320A90149200D30FB0047
:10057C00AF30FC00B630FD00FD0BC22AFC0BC22ACA
:10058C00FB0BC22A00000630A100D42B06158615E1
:10059C00FF30A9008320FF30A9004920BD2070083E
:1005AC00033A031DE12A44207008003A031DE12A96
:1005BC000630A100412BBD207008033A031D032B0C
:1005CC0044207008053A0319002B44207008013AA6
:1005DC000319002B44207008023A0319002B442005
:1005EC007008033A0319002B44207008043A0319CD
:1005FC00002B032B0A30A100412BBD207008003AC0
:10060C00031D102B44207008003A031D102B0130E1
:10061C00A100412BBD207008013A031D182B02309C
:10062C00A100412BBD207008023A031D202B033082
:10063C00A100412BBD207008003A031D412B442022
:10064C007008053A03193F2B44207008013A03192E
:10065C003F2B44207008023A03193F2B44207008AA
:10066C00033A03193F2B44207008043A03193F2B1B
:10067C00412B0A30A100D42B06158611CC30A900D1
:10068C008320CC30A90049201A30FB005E30FC00DE
:10069C006E30FD00FD0B502BFC0B502BFB0B502B2D
:1006AC0000000930A100D42B06118615CC30A9000E
:1006BC008320CC30A90049201A30FB005E30FC00AE
:1006CC006E30FD00FD0B682BFC0B682BFB0B682BB5
:1006DC0000000930A100D42B06158615CC30A900DA
:1006EC008320CC30A90049203330FB00BB30FC0008
:1006FC00DF30FD00FD0B802BFC0B802BFB0B802BCC
:10070C00000000000130A100D42B06118611CC3062
:10071C00A9008320CC30A90049203330FB00BB302A
:10072C00FC00DF30FD00FD0B992BFC0B992BFB0B18
:10073C00992B000000000130A100D42BD42B831284
:10074C0003132108003A03191F2A2108013A03193F
:10075C00242A2108023A03195F2A2108033A0319B3
:10076C008A2A2108043A0319B52A2108053A0319E3
:10077C00B82A2108063A0319CC2A2108073A03198A
:10078C00422B2108083A03195A2B2108093A03195C
:0E079C00722B21080A3A03198B2BA42B08009C
:1007AA00E22C83120313881AE12B081FE12B881FFE
:1007BA00E12B0130A000042C881EEA2B081FEA2B2B
:1007CA00881BEA2B0230A000042C881AF32B081B82
:1007DA00F32B881FF32B0330A000042C881EFC2B5C
:1007EA00081BFC2B881BFC2B0430A000042C881A45
:1007FA00042C081B042C881B042C0530A000FD2C9B
:10080A00881E0D2C081F0D2C881F0D2CA001302CC2
:10081A00881E162C081F162C881B162C0230A000C6
:10082A00302C881A1F2C081B1F2C881F1F2C0330E2
:10083A00A000302C881E282C081B282C881B282C4A
:10084A000430A000302C881A302C081B302C881B4E
:10085A00302C0530A000FD2C881E392C081F392C9D
:10086A00881F392CA0015C2C881A422C081F422CA4
:10087A00881F422C0130A0005C2C881A4B2C081BC4
:10088A004B2C881F4B2C0330A0005C2C881E542C48
:10089A00081B542C881B542C0430A0005C2C881A8A
:1008AA005C2C081B5C2C881B5C2C0530A000FD2CE2
:1008BA00881E652C081F652C881F652CA001882CB2
:1008CA00881A6E2C081F6E2C881F6E2C0130A0000F
:1008DA00882C881E772C081F772C881B772C0230CF
:1008EA00A000882C881E802C081B802C881B802C3A
:1008FA000430A000882C881A882C081B882C881B96
:10090A00882C0530A000FD2C881E912C081F912CE4
:10091A00881F912CA001B42C881A9A2C081F9A2C93
:10092A00881F9A2C0130A000B42C881EA32C081F03
:10093A00A32C881BA32C0230A000B42C881AAC2C40
:10094A00081BAC2C881FAC2C0330A000B42C881ACE
:10095A00B42C081BB42C881BB42C0530A000FD2C29
:10096A00881EBD2C081FBD2C881FBD2CA001E02CA1
:10097A00881AC62C081FC62C881FC62C0130A00056
:10098A00E02C881ECF2C081FCF2C881BCF2C0230BE
:10099A00A000E02C881AD82C081BD82C881FD82C29
:1009AA000330A000E02C881EE02C081BE02C881BDA
:1009BA00E02C0430A000FD2CFD2C83120313200828
:1009CA00003A0319D62B2008013A0319052C2008EE
:1009DA00023A0319312C2008033A03195D2C200826
:1009EA00043A0319892C2008053A0319B52CE12C7D
:0209FA000800F3
:0209FC000800F1
:0209FE000800EF
:020A00000800EC
:100A02003C25F030831603138600831212149210D1
:100A1200F93083169200D22012149210F930831604
:100A22009200D8208601FE240025FF246221632142
:100A32006B218130831699001815C2209817033054
:100A4200FB008A30FC005530FD00FD0B262DFC0B0F
:100A5200262DFB0B262D00000000DE20D5231E22B2
:060A62007F212E2D332D33
:100A780020308400033083120313F0003930A300C0
:080A88000530A40073210800F1
:020A720000344E
:020A740000344C
:020A760000344A
:02400E004A2F37
:00000001FF
