:02000000A32A31
:1000060083120313FB01FA01F9018030F800F10CA9
:10001600F00C031C17287408F90775080318750FE8
:10002600FA070318FB0A0310F01F1F287408FA07C3
:1000360075080318750FFB07FB0CFA0CF90CF80C86
:10004600031C0A287B08F3007A08F2007908F100FD
:060056007808F00008002C
:0A005C00831203132108F0000800CE
:0E0066008312031323088A0022088200080078
:10007400831603139818402800003A28831228088E
:0400840099000800D7
:0A008800831203132008F0000800A3
:10009200831603131208013EF000F1010318F10A5E
:1000A20083122808F400F50103200630F2007008DC
:1000B200F4007108F500720803196428F50CF40CB9
:1000C200F513FF3E5D280430F1007408F00071085A
:1000D20003196F28F00D7010FF3E6928303070054B
:1000E200F3007408F0007508F100F10CF00CF11344
:1000F200F10CF00CF11370089B000F309D05730892
:040102009D04080050
:10010600831603131208013EF000F1010318F10AE9
:1001160083122808F400F50103200630F200700867
:10012600F4007108F500720803199E28F50CF40C0A
:10013600F513FF3E97280430F1007408F0007108AB
:100146000319A928F00D7010FF3EA3283030700562
:10015600F3007408F0007508F100F10CF00CF113CF
:10016600F10CF00CF113700895000F309705730829
:0401760097040800E2
:10017A0083160313981690308312980083168717F4
:10018A00071383128C1ECC281A08F000C628080010
:02019A0008005B
:0C019C00831203139B011D129D1208002A
:1001A800831603138710831212150C309D04080060
:1001B800831603130711831212150C3097040800D5
:1001C8004D298312031306108610061EF128861A7D
:1001D800F1280130A0000614F828061AF828861E0F
:1001E800F8280230A00086146029061A0129861A08
:1001F8000129A001861006101229061A0A29861E4E
:100208000A290230A000861406101229061E122997
:10021800861E12290330A000861406146029061AC7
:100228001B29861A1B29A001861006102C29061ED8
:100238002429861A24290130A000861006142C29A6
:10024800061E2C29861E2C290330A00086140614AD
:100258006029061E3629861A36290130A000861024
:1002680006144829061A3F29861E3F290230A00095
:10027800861406104829061A4829861A4829A00112
:1002880086100610861406146029A0018610061030
:100298006029831203132008003A0319E52820086F
:1002A800013A0319F9282008023A031913292008EA
:0A02B800033A03192D294929080013
:1002C20033208A110A128000840AA20A0319A30A9F
:0802D200F003031D612908007F
:1002DA00023083120313FB004530FC00A930FD00F5
:1002EA00FD0B7529FC0B7529FB0B75290000000015
:1002FA006530A8003A200230FB004530FC00A930E6
:10030A00FD00FD0B8629FC0B8629FB0B86290000C4
:10031A0000000130A8003A200230FB004530FC0002
:10032A00A930FD00FD0B9729FC0B9729FB0B972998
:10033A000000000044207008A8003A200230FB00A8
:10034A004530FC00A930FD00FD0BA929FC0BA929A9
:10035A00FB0BA929000000006530A8003A200230F2
:10036A00FB004530FC00A930FD00FD0BBA29FC0B4F
:10037A00BA29FB0BBA29000000000230A8003A2073
:10038A000230FB004530FC00A930FD00FD0BCB29F3
:10039A00FC0BCB29FB0BCB29000000002E20700898
:0603AA00A8003A20080043
:1003B0007B2A013083120313A1009A2A06118611A9
:1003C000A8018320A801492044207008013A031D98
:1003D000EC290230A100FB2944207008023A031DD9
:1003E000F4290330A100FB2944207008033A031DBF
:1003F000FB290430A1009A2A06118615CC30A800EA
:100400008320CC30A800492044207008003A031D06
:100410000C2A0130A1001B2A44207008023A031D57
:10042000142A0330A1001B2A44207008033A031D3C
:100430001B2A0430A1009A2A06158611CC30A80088
:100440008320CC30A800492044207008003A031DC6
:100450002C2A0130A1003B2A44207008013A031DD8
:10046000342A0230A1003B2A44207008033A031DBD
:100470003B2A0430A1009A2A06118611CC30A8002C
:100480008320CC30A80049200530A1009A2A06110B
:1004900086111A30FB005E30FC006E30FD00FD0B53
:1004A0004F2AFC0B4F2AFB0B4F2A0000A801832088
:1004B000A80149202730FB000D30FC002630FD004C
:1004C000FD0B602AFC0B602AFB0B602A0000063043
:1004D000A1009A2A06158615FF30A8008320FF3058
:1004E000A800492044207008003A031D792A0130F1
:1004F000A1009A2A9A2A831203132108003A0319A9
:10050000D9292108013A0319DE292108023A0319E1
:10051000FC292108033A03191C2A2108043A03196B
:100520003C2A2108053A0319472A2108063A0319EB
:060530006A2A7A2A080085
:0C0536008312031395011712971208009E
:020542000800AF
:020544000800AD
:10054600DC22F030831603138600831212149210F5
:10055600F930831692009B2212149210F9308316FA
:100566009200CE208601A222A122CD20DC20D4201A
:100576008130831699001815BD2098170330FB00AB
:100586008A30FC005530FD00FD0BC72AFC0BC72A3C
:10059600FB0BC72A00000000E420D8216D21CF2ADA
:0205A600D32A56
:1005B80020308400023083120313F000D930A200E7
:0805C8000230A30061210800CC
:0205B200003413
:0205B400003411
:02400E004A2F37
:00000001FF
