:02000000062DCB
:1000060083120313FB01FA01F9018030F800F10CA9
:10001600F00C031C17287408F90775080318750FE8
:10002600FA070318FB0A0310F01F1F287408FA07C3
:1000360075080318750FFB07FB0CFA0CF90CF80C86
:10004600031C0A287B08F3007A08F2007908F100FD
:060056007808F00008002C
:0A005C00831203132008F0000800CF
:0A006600831203132108F0000800C4
:100070008316031398183E28000038288312290895
:0400800099000800DB
:10008400831603131208013EF000F1010318F10A6C
:1000940083122908F400F50103200630F2007008E9
:1000A400F4007108F500720803195D28F50CF40CCE
:1000B400F513FF3E56280430F1007408F00071086F
:1000C40003196828F00D7010FF3E62283030700567
:1000D400F3007408F0007508F100F10CF00CF11352
:1000E400F10CF00CF113700895000F3097057308AC
:0400F4009704080065
:0E00F8008312031324088A00230882000800E4
:10010600831603131208013EF000F1010318F10AE9
:1001160083122908F400F50103200630F200700866
:10012600F4007108F500720803199E28F50CF40C0A
:10013600F513FF3E97280430F1007408F0007108AB
:100146000319A928F00D7010FF3EA3283030700562
:10015600F3007408F0007508F100F10CF00CF113CF
:10016600F10CF00CF11370089B000F309D0573081D
:040176009D040800DC
:0A017A00831203132208F0000800AE
:1001840083160313981690308312980083168717EA
:10019400071383128C1ED1281A08F000CB280800FC
:0C01A40083120313950117129712080034
:0C01B000831203139B011D129D12080016
:1001BC0045298312031306108610061EEB28861A97
:1001CC00EB280130A2000614F228061AF228861E2B
:1001DC00F2280230A20086145829061AFB28861A27
:1001EC00FB28A201861006100C29061A0429861E6B
:1001FC0004290230A200861406100C29061E0C29B4
:10020C00861E0C290330A200861406145829061ADF
:10021C001529861A1529A201861006102629061EF4
:10022C001E29861A1E290130A200861006142629C2
:10023C00061E2629861E26290330A20086140614C3
:10024C005829061E3029861A30290130A200861042
:10025C0006144029061A3929861E39290230A200B3
:10026C00861406104029061A4029861A4029A20134
:10027C00861006105829A2018610061058298312E0
:10028C0003132208003A0319DF282208013A031944
:10029C00F3282208023A03190D292208033A0319FC
:0602AC002729412908008A
:1002B200831603130711831212150C3097040800DA
:0202C200080032
:1002C400831603138710831212150C309D04080043
:1002D4007C208A110A128000840AA30A0319A40A42
:0802E400F003031D6A29080064
:1002EC00023083120313FB004530FC00A930FD00E3
:1002FC00FD0B7E29FC0B7E29FB0B7E2900000000E8
:10030C006530A90038200230FB004530FC00A930D4
:10031C00FD00FD0B8F29FC0B8F29FB0B8F29000097
:10032C0000000130A90038200230FB004530FC00F1
:10033C00A930FD00FD0BA029FC0BA029FB0BA0296B
:10034C0000000000BD207008A90038200230FB001E
:10035C004530FC00A930FD00FD0BB229FC0BB22985
:10036C00FB0BB229000000006530A90038200230D8
:10037C00FB004530FC00A930FD00FD0BC329FC0B34
:10038C00C329FB0BC329000000000230A900382050
:10039C000230FB004530FC00A930FD00FD0BD429D8
:1003AC00FC0BD429FB0BD42900000000332070086F
:1003BC00A90038200230FB004530FC00A930FD00BC
:1003CC00FD0BE629FC0BE629FB0BE62900000000DF
:1003DC006530A90038200230FB004530FC00A93004
:1003EC00FD00FD0BF729FC0BF729FB0BF72900008F
:1003FC0000000330A90038200230FB004530FC001F
:10040C00A930FD00FD0B082AFC0B082AFB0B082A5F
:10041C00000000002E207008A90038200230FB00DC
:10042C004530FC00A930FD00FD0B1A2AFC0B1A2AE2
:10043C00FB0B1A2A000000006530A900382002309E
:10044C00FB004530FC00A930FD00FD0B2B2AFC0BFA
:10045C002B2AFB0B2B2A000000000930A9003820A6
:10046C000230FB004530FC00A930FD00FD0B3C2A9E
:10047C00FC0B3C2AFB0B3C2A00000000A901382095
:10048C000230FB004530FC00A930FD00FD0B4C2A6E
:10049C00FC0B4C2AFB0B4C2A000000000430A9007A
:0404AC0038200800EC
:1004B000A92B013083120313A100D82BBD20700893
:1004C000013A0319692ABD207008003A0319692A04
:1004D0006C2A0230A1007B2ABD207008023A031D5D
:1004E000742A0330A1007B2ABD207008033A031D43
:1004F0007B2A0430A100D82B06158611CC30A90028
:100500004220CC30A9008320BD207008023A031D90
:100510008C2A0330A100A62ABD207008033A031DCF
:10052000942A0430A100A62A2E207008033A031949
:10053000A42A2E207008053A0319A42A2E20700838
:10054000013A0319A42AA62A0830A100D82B0611C3
:100550008615CC30A9004220CC30A9008320BD20D4
:100560007008013A031DB72A0230A100D12ABD202C
:100570007008033A031DBF2A0430A100D12A2E209F
:100580007008043A0319CF2A2E207008053A03197F
:10059000CF2A2E207008023A0319CF2AD12A073019
:1005A000A100D82B06118611CC30A9004220CC30F6
:1005B000A90083200530A100D82B061186111A301E
:1005C000FB005E30FC006E30FD00FD0BE52AFC0BED
:1005D000E52AFB0BE52A0000A9014220A90183209E
:1005E0002730FB000D30FC002630FD00FD0BF62A05
:1005F000FC0BF62AFB0BF62A00000630A100D82BD4
:1006000006158615FF30A9004220FF30A90083207F
:10061000BD207008003A031D152B2E207008003AEB
:10062000031D152B0130A100462BBD207008013A97
:10063000031D1D2B0230A100462BBD207008023A7D
:10064000031D252B0330A100462BBD207008003A66
:10065000031D462B2E207008053A0319442B2E202B
:100660007008013A0319442B2E207008023A03192E
:10067000442B2E207008033A0319442B2E207008B7
:10068000043A0319442B462B0A30A100D82B06113B
:100690008615CC30A9004220CC30A90083201A3026
:1006A000FB005E30FC006E30FD00FD0B552BFC0B9B
:1006B000552BFB0B552B00000930A100D82B06153C
:1006C0008611CC30A9004220CC30A90083201A30FA
:1006D000FB005E30FC006E30FD00FD0B6D2BFC0B53
:1006E0006D2BFB0B6D2B00000930A100D82B0615DC
:1006F0008615CC30A9004220CC30A90083201A30C6
:10070000FB005E30FC006E30FD00FD0B852BFC0B0A
:10071000852BFB0B852B00000130A100D82B061187
:100720008611CC30A9004220CC30A9008320333080
:10073000FB00BB30FC00DF30FD00FD0B9D2BFC0BF4
:100740009D2BFB0B9D2B000000000130A100D82B3E
:10075000D82B831203132108003A0319592A2108C0
:10076000013A03195E2A2108023A03197C2A21085A
:10077000033A0319A72A2108043A0319D22A2108A7
:10078000053A0319DD2A2108063A0319002B21082E
:10079000073A0319472B2108083A03195F2B210850
:1007A000093A0319772B21080A3A03198F2BA82B32
:0207B00008003F
:1007B200E72C83120313881AE52B081FE52B881FE9
:1007C200E52B0130A000082C881EEE2B081FEE2B13
:1007D200881BEE2B0230A000082C881AF72B081B6E
:1007E200F72B881FF72B0330A000082C881E002C43
:1007F200081B002C881B002C0430A000082C881A2F
:10080200082C081B082C881B082C0530A000022D80
:10081200881E112C081F112C881F112CA001342CAA
:10082200881E1A2C081F1A2C881B1A2C0230A000B2
:10083200342C881A232C081B232C881F232C0330CA
:10084200A000342C881E2C2C081B2C2C881B2C2C32
:100852000430A000342C881A342C081B342C881B3A
:10086200342C0530A000022D881E3D2C081F3D2C83
:10087200881F3D2CA001602C881A462C081F462C8C
:10088200881F462C0130A000602C881A4F2C081BB0
:100892004F2C881F4F2C0330A000602C881E582C30
:1008A200081B582C881B582C0430A000602C881A76
:1008B200602C081B602C881B602C0530A000022DC8
:1008C200881E692C081F692C881F692CA0018C2C9A
:1008D200881A722C081F722C881F722C0130A000FB
:1008E2008C2C881E7B2C081F7B2C881B7B2C0230B7
:1008F200A0008C2C881E842C081B842C881B842C22
:100902000430A0008C2C881A8C2C081B8C2C881B81
:100912008C2C0530A000022D881E952C081F952CCA
:10092200881F952CA001B82C881A9E2C081F9E2C7B
:10093200881F9E2C0130A000B82C881EA72C081FEF
:10094200A72C881BA72C0230A000B82C881AB02C28
:10095200081BB02C881FB02C0330A000B82C881ABA
:10096200B82C081BB82C881BB82C0530A000022D0F
:10097200881EC12C081FC12C881FC12CA001E42C89
:10098200881ACA2C081FCA2C881FCA2C0130A00042
:10099200E42C881ED32C081FD32C881BD32C0230A6
:1009A200A000E42C881ADC2C081BDC2C881FDC2C11
:1009B2000330A000E42C881EE42C081BE42C881BC6
:1009C200E42C0430A000022DA001022D8312031397
:1009D2002008003A0319DA2B2008013A0319092CDE
:1009E2002008023A0319352C2008033A0319612C16
:1009F2002008043A03198D2C2008053A0319B92C52
:040A0200E52C0800D7
:020A06000800E6
:020A08000800E4
:020A0A000800E2
:100A0C004225F030831603138600831212149210C1
:100A1C00F93083169200D22012149210F9308316FA
:100A2C009200D82086010325052504256121592132
:100A3C0062218130831699001815C2209817033053
:100A4C00FB008A30FC005530FD00FD0B2B2DFC0B00
:100A5C002B2DFB0B2B2D00000000DE20D923582260
:060A6C007621332D382D28
:100A840020308400033083120313F0003E30A300AF
:080A94000530A4006A210800EE
:020A7C00003444
:020A7E00003442
:020A8000003440
:02400E004A2F37
:00000001FF
