:02000000282DA9
:1000060083120313FB01FA01F9018030F800F10CA9
:10001600F00C031C17287408F90775080318750FE8
:10002600FA070318FB0A0310F01F1F287408FA07C3
:1000360075080318750FFB07FB0CFA0CF90CF80C86
:10004600031C0A287B08F3007A08F2007908F100FD
:060056007808F00008002C
:0A005C00831203132108F0000800CE
:0E0066008312031324088A0023088200080076
:10007400831603139818402800003A28831229088D
:0400840099000800D7
:0A008800831203132008F0000800A3
:10009200831603131208013EF000F1010318F10A5E
:1000A20083122908F400F50103200630F2007008DB
:1000B200F4007108F500720803196428F50CF40CB9
:1000C200F513FF3E5D280430F1007408F00071085A
:1000D20003196F28F00D7010FF3E6928303070054B
:1000E200F3007408F0007508F100F10CF00CF11344
:1000F200F10CF00CF11370089B000F309D05730892
:040102009D04080050
:10010600831603131208013EF000F1010318F10AE9
:1001160083122908F400F50103200630F200700866
:10012600F4007108F500720803199E28F50CF40C0A
:10013600F513FF3E97280430F1007408F0007108AB
:100146000319A928F00D7010FF3EA3283030700562
:10015600F3007408F0007508F100F10CF00CF113CF
:10016600F10CF00CF113700895000F309705730829
:0401760097040800E2
:0A017A00831203132208F0000800AE
:1001840083160313981690308312980083168717EA
:10019400071383128C1ED1281A08F000CB280800FC
:0C01A40083120313950117129712080034
:0C01B000831203139B011D129D12080016
:1001BC004E298312031306108610061EEB28861A8E
:1001CC00EB280130A2000614FB28061AF328861E21
:1001DC00F3280230A2008614FB28061EFB28861E7C
:1001EC00FB280330A200061486146129061A042980
:1001FC00861A0429A201861006101529061A0D2943
:10020C00861E0D290230A200861406101529061E22
:10021C001529861E15290330A2008614061461299F
:10022C00061A1E29861A1E29A201861006102F29CD
:10023C00061E2729861A27290130A20086100614CB
:10024C002F29061E2F29861E2F290330A200861463
:10025C0006146129061E3929861A39290130A20093
:10026C00861006144929061A4229861E4229023094
:10027C00A200861406104929061A4929861A49290A
:10028C00A201861006106129A201861006106129B0
:10029C00831203132208003A0319DF282208013ABB
:1002AC000319FC282208023A031916292208033ADA
:0802BC00031930294A2908004A
:0202C400080030
:1002C600831603130711831212150C3097040800C6
:1002D600831603138710831212150C309D04080031
:1002E60033208A110A128000840AA30A0319A40A79
:0802F600F003031D7329080049
:1002FE00023083120313FB004530FC00A930FD00D1
:10030E00FD0B8729FC0B8729FB0B872900000000BA
:10031E006530A9003A200230FB004530FC00A930C0
:10032E00FD00FD0B9829FC0B9829FB0B982900006A
:10033E0000000130A9003A200230FB004530FC00DD
:10034E00A930FD00FD0BA929FC0BA929FB0BA9293E
:10035E0000000000BD207008A9003A200230FB000A
:10036E004530FC00A930FD00FD0BBB29FC0BBB2961
:10037E00FB0BBB29000000006530A9003A200230BB
:10038E00FB004530FC00A930FD00FD0BCC29FC0B19
:10039E00CC29FB0BCC29000000000230A9003A202A
:1003AE000230FB004530FC00A930FD00FD0BDD29BD
:1003BE00FC0BDD29FB0BDD29000000002E20700850
:1003CE00A9003A200230FB004530FC00A930FD00A8
:1003DE00FD0BEF29FC0BEF29FB0BEF2900000000B2
:1003EE006530A9003A200230FB004530FC00A930F0
:1003FE00FD00FD0B002AFC0B002AFB0B002A00005F
:10040E0000000330A9003A200230FB004530FC000A
:10041E00A930FD00FD0B112AFC0B112AFB0B112A32
:10042E000000000044207008A9003A200230FB00B2
:10043E004530FC00A930FD00FD0B232AFC0B232ABE
:10044E00FB0B232A000000006530A9003A20023081
:10045E00FB004530FC00A930FD00FD0B342AFC0BDF
:10046E00342AFB0B342A000000000930A9003A2080
:10047E000230FB004530FC00A930FD00FD0B452A83
:10048E00FC0B452AFB0B452A00000000A9013A206F
:10049E000230FB004530FC00A930FD00FD0B552A53
:1004AE00FC0B552AFB0B552A000000000430A90056
:0404BE003A200800D8
:1004C200CB2B013083120313A100FA2BBD2070083D
:1004D200013A0319812ABD207008003A0319812AC2
:1004E20044207008023A0319812A44207008043A11
:1004F2000319812A44207008053A0319812A842AA3
:100502000230A1009E2ABD207008023A0319942AE3
:1005120044207008013A0319942A44207008033ACF
:100522000319942A972A0330A1009E2ABD2070083D
:10053200033A031D9E2A0430A100FA2B06158611E8
:10054200CC30A9008320CC30A9004920BD207008FE
:10055200023A031DAF2A0330A100C92ABD20700848
:10056200033A031DB72A0430A100C92A44207008A7
:10057200033A0319C72A44207008053A0319C72A07
:1005820044207008013A0319C72AC92A0830A10079
:10059200FA2B06118615CC30A9008320CC30A90095
:1005A2004920BD207008013A031DDA2A0230A10059
:1005B200F42ABD207008033A031DE22A0430A10088
:1005C200F42A44207008043A0319F22A44207008DD
:1005D200053A0319F22A44207008023A0319F22A52
:1005E200F42A0730A100FA2B06118611CC30A9009B
:1005F2008320CC30A90049200530A100FA2B061136
:1006020086111A30FB005E30FC006E30FD00FD0BDF
:10061200082BFC0B082BFB0B082B0000A9018320E5
:10062200A90149200D30FB00AF30FC00B630FD00BF
:10063200FD0B192BFC0B192BFB0B192B00000630A1
:10064200A100FA2B06158615FF30A9008320FF3082
:10065200A9004920BD207008003A031D382B442010
:100662007008003A031D382B0130A100692BBD2010
:100672007008013A031D402B0230A100692BBD20F6
:100682007008023A031D482B0330A100692BBD20DC
:100692007008003A031D692B44207008053A0319BB
:1006A200672B44207008013A0319672B4420700815
:1006B200023A0319672B44207008033A0319672B87
:1006C20044207008043A0319672B692B0A30A100F1
:1006D200FA2B06118615CC30A9008320CC30A90054
:1006E20049201A30FB005E30FC006E30FD00FD0B2D
:1006F200782BFC0B782BFB0B782B00000930A10028
:10070200FA2B06158611CC30A9008320CC30A90023
:1007120049201A30FB005E30FC006E30FD00FD0BFC
:10072200902BFC0B902BFB0B902B00000930A100AF
:10073200FA2B06158615CC30A9008320CC30A900EF
:1007420049201A30FB005E30FC006E30FD00FD0BCC
:10075200A82BFC0BA82BFB0BA82B00000130A1003F
:10076200FA2B06118611CC30A9008320CC30A900C7
:1007720049201A30FB005E30FC006E30FD00FD0B9C
:10078200C02BFC0BC02BFB0BC02B00000130A100C7
:10079200FA2BFA2B831203132108003A0319622A57
:1007A2002108013A0319672A2108023A03199F2AEC
:1007B2002108033A0319CA2A2108043A0319F52A1F
:1007C2002108053A0319002B2108063A0319232BA5
:1007D2002108073A03196A2B2108083A0319822BC8
:1007E2002108093A03199A2B21080A3A0319B22B54
:0407F200CA2B080006
:1007F600092D83120313881A072C081F072C881F3C
:10080600072C0130A0002A2C881E102C081F102C43
:10081600881B102C0230A0002A2C881A192C081BC1
:10082600192C881F192C0330A0002A2C881E222C74
:10083600081B222C881B222C0430A0002A2C881A84
:100846002A2C081B2A2C881B2A2C0530A000242DB4
:10085600881E332C081F332C881F332CA001562CDE
:10086600881E3C2C081F3C2C881B3C2C0230A00008
:10087600562C881A452C081B452C881F452C0330FE
:10088600A000562C881E4E2C081B4E2C881B4E2C66
:100896000430A000562C881A562C081B562C881B90
:1008A600562C0530A000242D881E5F2C081F5F2CB7
:1008B600881F5F2CA001822C881A682C081F682CC0
:1008C600881F682C0130A000822C881A712C081B06
:1008D600712C881F712C0330A000822C881E7A2C64
:1008E600081B7A2C881B7A2C0430A000822C881ACC
:1008F600822C081B822C881B822C0530A000242DFC
:10090600881E8B2C081F8B2C881F8B2CA001AE2CCD
:10091600881A942C081F942C881F942C0130A00050
:10092600AE2C881E9D2C081F9D2C881B9D2C0230EA
:10093600A000AE2C881EA62C081BA62C881BA62C55
:100946000430A000AE2C881AAE2C081BAE2C881BD7
:10095600AE2C0530A000242D881EB72C081FB72CFE
:10096600881FB72CA001DA2C881AC02C081FC02CAF
:10097600881FC02C0130A000DA2C881EC92C081F45
:10098600C92C881BC92C0230A000DA2C881AD22C5C
:10099600081BD22C881FD22C0330A000DA2C881A10
:1009A600DA2C081BDA2C881BDA2C0530A000242D43
:1009B600881EE32C081FE32C881FE32CA001062DBC
:1009C600881AEC2C081FEC2C881FEC2C0130A00098
:1009D600062D881EF52C081FF52C881BF52C0230D9
:1009E600A000062D881AFE2C081BFE2C881FFE2C44
:1009F6000330A000062D881E062D081B062D881B19
:100A0600062D0430A000242DA001242D83120313EB
:100A16002008003A0319FC2B2008013A03192B2C55
:100A26002008023A0319572C2008033A0319832C8D
:100A36002008043A0319AF2C2008053A0319DB2CC9
:040A4600072D080070
:020A4A000800A2
:020A4C000800A0
:020A4E0008009E
:100A50006425F0308316031386008312121492105B
:100A6000F93083169200D22012149210F9308316B6
:100A70009200D8208601252527252625622163217D
:100A80006B218130831699001815C2209817033006
:100A9000FB008A30FC005530FD00FD0B4D2DFC0B9A
:100AA0004D2DFB0B4D2D00000000DE20FB236122AD
:060AB0007F21552D5A2D97
:100AC80020308400033083120313F0006030A30049
:080AD8000530A40073210800A1
:020AC000003400
:020AC2000034FE
:020AC4000034FC
:02400E004A2F37
:00000001FF
